{
  "contractName": "TaskCrud",
  "abi": [
    {
      "inputs": [
        {
          "internalType": "string",
          "name": "_description",
          "type": "string"
        }
      ],
      "name": "createTask",
      "outputs": [],
      "stateMutability": "nonpayable",
      "type": "function"
    },
    {
      "inputs": [
        {
          "internalType": "uint256",
          "name": "_id",
          "type": "uint256"
        },
        {
          "internalType": "string",
          "name": "_description",
          "type": "string"
        }
      ],
      "name": "updateTask",
      "outputs": [
        {
          "internalType": "uint256",
          "name": "",
          "type": "uint256"
        },
        {
          "internalType": "bytes32",
          "name": "",
          "type": "bytes32"
        },
        {
          "internalType": "string",
          "name": "",
          "type": "string"
        }
      ],
      "stateMutability": "nonpayable",
      "type": "function"
    },
    {
      "inputs": [
        {
          "internalType": "uint256",
          "name": "_id",
          "type": "uint256"
        }
      ],
      "name": "readTask",
      "outputs": [
        {
          "internalType": "uint256",
          "name": "",
          "type": "uint256"
        },
        {
          "internalType": "bytes32",
          "name": "",
          "type": "bytes32"
        },
        {
          "internalType": "string",
          "name": "",
          "type": "string"
        }
      ],
      "stateMutability": "view",
      "type": "function"
    },
    {
      "inputs": [
        {
          "internalType": "uint256",
          "name": "_id",
          "type": "uint256"
        }
      ],
      "name": "deleteTask",
      "outputs": [],
      "stateMutability": "nonpayable",
      "type": "function"
    },
    {
      "inputs": [],
      "name": "getTasks",
      "outputs": [
        {
          "components": [
            {
              "internalType": "uint256",
              "name": "id",
              "type": "uint256"
            },
            {
              "internalType": "bytes32",
              "name": "contentHash",
              "type": "bytes32"
            },
            {
              "internalType": "string",
              "name": "descripcion",
              "type": "string"
            }
          ],
          "internalType": "struct TaskCrud.Data[]",
          "name": "",
          "type": "tuple[]"
        }
      ],
      "stateMutability": "view",
      "type": "function"
    }
  ],
  "bytecode": "0x608060405234801561001057600080fd5b50610e59806100206000396000f3fe608060405234801561001057600080fd5b50600436106100575760003560e01c806304a87e381461005c578063111002aa1461007a578063560f31921461009657806386533f6c146100b2578063ab755faf146100e4575b600080fd5b610064610116565b604051610071919061094f565b60405180910390f35b610094600480360381019061008f9190610aba565b61021b565b005b6100b060048036038101906100ab9190610b2f565b6102bf565b005b6100cc60048036038101906100c79190610b5c565b610315565b6040516100db93929190610c20565b60405180910390f35b6100fe60048036038101906100f99190610b2f565b6104a4565b60405161010d93929190610c20565b60405180910390f35b60606000805480602002602001604051908101604052809291908181526020016000905b828210156102125783829060005260206000209060030201604051806060016040529081600082015481526020016001820154815260200160028201805461018190610c8d565b80601f01602080910402602001604051908101604052809291908181526020018280546101ad90610c8d565b80156101fa5780601f106101cf576101008083540402835291602001916101fa565b820191906000526020600020905b8154815290600101906020018083116101dd57829003601f168201915b5050505050815250508152602001906001019061013a565b50505050905090565b6000610226826105c1565b9050600060405180606001604052806001548152602001838152602001848152509080600181540180825580915050600190039060005260206000209060030201600090919091909150600082015181600001556020820151816001015560408201518160020190805190602001906102a092919061068f565b505050600160008154809291906102b690610ced565b91905055505050565b60006102ca826105f1565b9050600081815481106102e0576102df610d35565b5b9060005260206000209060030201600080820160009055600182016000905560028201600061030f9190610715565b50505050565b60008060606000610325866105f1565b90506000610332866105c1565b9050806000838154811061034957610348610d35565b5b906000526020600020906003020160010181905550856000838154811061037357610372610d35565b5b9060005260206000209060030201600201908051906020019061039792919061068f565b50600082815481106103ac576103ab610d35565b5b906000526020600020906003020160000154600083815481106103d2576103d1610d35565b5b906000526020600020906003020160010154600084815481106103f8576103f7610d35565b5b906000526020600020906003020160020180805461041590610c8d565b80601f016020809104026020016040519081016040528092919081815260200182805461044190610c8d565b801561048e5780601f106104635761010080835404028352916020019161048e565b820191906000526020600020905b81548152906001019060200180831161047157829003601f168201915b5050505050905094509450945050509250925092565b600080606060006104b4856105f1565b9050600081815481106104ca576104c9610d35565b5b906000526020600020906003020160000154600082815481106104f0576104ef610d35565b5b9060005260206000209060030201600101546000838154811061051657610515610d35565b5b906000526020600020906003020160020180805461053390610c8d565b80601f016020809104026020016040519081016040528092919081815260200182805461055f90610c8d565b80156105ac5780601f10610581576101008083540402835291602001916105ac565b820191906000526020600020905b81548152906001019060200180831161058f57829003601f168201915b50505050509050935093509350509193909250565b6000816040516020016105d49190610da0565b604051602081830303815290604052805190602001209050919050565b600080600090505b60008054905081101561064e57826000828154811061061b5761061a610d35565b5b9060005260206000209060030201600001540361063b578091505061068a565b808061064690610ced565b9150506105f9565b506040517f08c379a000000000000000000000000000000000000000000000000000000000815260040161068190610e03565b60405180910390fd5b919050565b82805461069b90610c8d565b90600052602060002090601f0160209004810192826106bd5760008555610704565b82601f106106d657805160ff1916838001178555610704565b82800160010185558215610704579182015b828111156107035782518255916020019190600101906106e8565b5b5090506107119190610755565b5090565b50805461072190610c8d565b6000825580601f106107335750610752565b601f0160209004906000526020600020908101906107519190610755565b5b50565b5b8082111561076e576000816000905550600101610756565b5090565b600081519050919050565b600082825260208201905092915050565b6000819050602082019050919050565b6000819050919050565b6107b18161079e565b82525050565b6000819050919050565b6107ca816107b7565b82525050565b600081519050919050565b600082825260208201905092915050565b60005b8381101561080a5780820151818401526020810190506107ef565b83811115610819576000848401525b50505050565b6000601f19601f8301169050919050565b600061083b826107d0565b61084581856107db565b93506108558185602086016107ec565b61085e8161081f565b840191505092915050565b600060608301600083015161088160008601826107a8565b50602083015161089460208601826107c1565b50604083015184820360408601526108ac8282610830565b9150508091505092915050565b60006108c58383610869565b905092915050565b6000602082019050919050565b60006108e582610772565b6108ef818561077d565b9350836020820285016109018561078e565b8060005b8581101561093d578484038952815161091e85826108b9565b9450610929836108cd565b925060208a01995050600181019050610905565b50829750879550505050505092915050565b6000602082019050818103600083015261096981846108da565b905092915050565b6000604051905090565b600080fd5b600080fd5b600080fd5b600080fd5b7f4e487b7100000000000000000000000000000000000000000000000000000000600052604160045260246000fd5b6109c78261081f565b810181811067ffffffffffffffff821117156109e6576109e561098f565b5b80604052505050565b60006109f9610971565b9050610a0582826109be565b919050565b600067ffffffffffffffff821115610a2557610a2461098f565b5b610a2e8261081f565b9050602081019050919050565b82818337600083830152505050565b6000610a5d610a5884610a0a565b6109ef565b905082815260208101848484011115610a7957610a7861098a565b5b610a84848285610a3b565b509392505050565b600082601f830112610aa157610aa0610985565b5b8135610ab1848260208601610a4a565b91505092915050565b600060208284031215610ad057610acf61097b565b5b600082013567ffffffffffffffff811115610aee57610aed610980565b5b610afa84828501610a8c565b91505092915050565b610b0c8161079e565b8114610b1757600080fd5b50565b600081359050610b2981610b03565b92915050565b600060208284031215610b4557610b4461097b565b5b6000610b5384828501610b1a565b91505092915050565b60008060408385031215610b7357610b7261097b565b5b6000610b8185828601610b1a565b925050602083013567ffffffffffffffff811115610ba257610ba1610980565b5b610bae85828601610a8c565b9150509250929050565b610bc18161079e565b82525050565b610bd0816107b7565b82525050565b600082825260208201905092915050565b6000610bf2826107d0565b610bfc8185610bd6565b9350610c0c8185602086016107ec565b610c158161081f565b840191505092915050565b6000606082019050610c356000830186610bb8565b610c426020830185610bc7565b8181036040830152610c548184610be7565b9050949350505050565b7f4e487b7100000000000000000000000000000000000000000000000000000000600052602260045260246000fd5b60006002820490506001821680610ca557607f821691505b602082108103610cb857610cb7610c5e565b5b50919050565b7f4e487b7100000000000000000000000000000000000000000000000000000000600052601160045260246000fd5b6000610cf88261079e565b91507fffffffffffffffffffffffffffffffffffffffffffffffffffffffffffffffff8203610d2a57610d29610cbe565b5b600182019050919050565b7f4e487b7100000000000000000000000000000000000000000000000000000000600052603260045260246000fd5b600081905092915050565b6000610d7a826107d0565b610d848185610d64565b9350610d948185602086016107ec565b80840191505092915050565b6000610dac8284610d6f565b915081905092915050565b7f5461736b206e6f7420666f756e64000000000000000000000000000000000000600082015250565b6000610ded600e83610bd6565b9150610df882610db7565b602082019050919050565b60006020820190508181036000830152610e1c81610de0565b905091905056fea2646970667358221220f4ff8c76e42e3694e283575d9326391f708375b03a76aeba7411570a5d57fd7664736f6c634300080d0033",
  "immutableReferences": {},
  "source": "// SPDX-License-Identifier: MIT\npragma solidity ^0.8.4;\n\ncontract TaskCrud {\n    \n    struct Data {\n        uint id;\n        bytes32 contentHash;\n        string descripcion;\n    }\n    \n    Data[] jsons;\n\n    uint nextId; // default value 0, add public to see the value\n    \n    \n    \n    function createHash(string memory _description) internal pure returns (bytes32){\n        return keccak256(abi.encodePacked(_description));\n    }\n\n    function findIndex(uint _id) internal view returns (uint) {\n        for (uint i = 0; i < jsons.length; i++) {\n            if (jsons[i].id == _id) {                \n                return i;\n            }\n        }\n        revert(\"Task not found\");\n    }\n\n    function createTask(string memory _description) public{\n        bytes32 contentHash = createHash(_description);\n        jsons.push(Data(nextId, contentHash, _description));\n        nextId++;\n    }\n    \n    function updateTask(uint _id, string memory _description) public returns (uint, bytes32, string memory){\n        uint index =  findIndex(_id);\n        bytes32 contentHash = createHash(_description);\n        jsons[index].contentHash= contentHash;\n        jsons[index].descripcion = _description;\n        return (jsons[index].id, jsons[index].contentHash, jsons[index].descripcion);\n    }\n    \n    function readTask(uint _id) public view returns (uint, bytes32,string memory) {\n        uint index = findIndex(_id);\n        return (jsons[index].id, jsons[index].contentHash, jsons[index].descripcion);\n    }\n    \n    \n    function deleteTask(uint _id) public{\n        uint index = findIndex(_id);\n        delete jsons[index];\n    }\n\n    function getTasks() public view returns (Data[] memory){\n        return jsons;\n    }\n\n    \n}",
  "sourcePath": "/home/tfm/Documentos/TFM_Carlos/contracts/TaskCrud.sol",
  "compiler": {
    "name": "solc",
    "version": "0.8.13+commit.abaa5c0e.Emscripten.clang"
  },
  "schemaVersion": "3.4.4",
  "updatedAt": "2022-05-16T14:35:17.177Z",
  "devdoc": {
    "kind": "dev",
    "methods": {},
    "version": 1
  },
  "userdoc": {
    "kind": "user",
    "methods": {},
    "version": 1
  }
}